{
  "contractName": "Tokenv1",
  "abi": [
    {
      "constant": true,
      "inputs": [],
      "name": "name",
      "outputs": [
        {
          "name": "",
          "type": "string"
        }
      ],
      "payable": false,
      "stateMutability": "view",
      "type": "function"
    },
    {
      "constant": false,
      "inputs": [
        {
          "name": "_spender",
          "type": "address"
        },
        {
          "name": "_value",
          "type": "uint256"
        }
      ],
      "name": "approve",
      "outputs": [
        {
          "name": "success",
          "type": "bool"
        }
      ],
      "payable": false,
      "stateMutability": "nonpayable",
      "type": "function"
    },
    {
      "constant": true,
      "inputs": [],
      "name": "totalSupply",
      "outputs": [
        {
          "name": "totalSupply",
          "type": "uint256"
        }
      ],
      "payable": false,
      "stateMutability": "view",
      "type": "function"
    },
    {
      "constant": false,
      "inputs": [
        {
          "name": "_from",
          "type": "address"
        },
        {
          "name": "_to",
          "type": "address"
        },
        {
          "name": "_value",
          "type": "uint256"
        }
      ],
      "name": "transferFrom",
      "outputs": [
        {
          "name": "success",
          "type": "bool"
        }
      ],
      "payable": false,
      "stateMutability": "nonpayable",
      "type": "function"
    },
    {
      "constant": true,
      "inputs": [],
      "name": "decimals",
      "outputs": [
        {
          "name": "",
          "type": "uint8"
        }
      ],
      "payable": false,
      "stateMutability": "view",
      "type": "function"
    },
    {
      "constant": true,
      "inputs": [],
      "name": "amountOfEthereum",
      "outputs": [
        {
          "name": "",
          "type": "uint256"
        }
      ],
      "payable": false,
      "stateMutability": "view",
      "type": "function"
    },
    {
      "constant": true,
      "inputs": [
        {
          "name": "_owner",
          "type": "address"
        }
      ],
      "name": "balanceOfETH",
      "outputs": [
        {
          "name": "balance",
          "type": "uint256"
        }
      ],
      "payable": false,
      "stateMutability": "view",
      "type": "function"
    },
    {
      "constant": true,
      "inputs": [
        {
          "name": "_owner",
          "type": "address"
        }
      ],
      "name": "balanceOf",
      "outputs": [
        {
          "name": "balance",
          "type": "uint256"
        }
      ],
      "payable": false,
      "stateMutability": "view",
      "type": "function"
    },
    {
      "constant": true,
      "inputs": [],
      "name": "tokenPrice",
      "outputs": [
        {
          "name": "",
          "type": "uint256"
        }
      ],
      "payable": false,
      "stateMutability": "view",
      "type": "function"
    },
    {
      "constant": true,
      "inputs": [],
      "name": "owner",
      "outputs": [
        {
          "name": "",
          "type": "address"
        }
      ],
      "payable": false,
      "stateMutability": "view",
      "type": "function"
    },
    {
      "constant": true,
      "inputs": [],
      "name": "symbol",
      "outputs": [
        {
          "name": "",
          "type": "string"
        }
      ],
      "payable": false,
      "stateMutability": "view",
      "type": "function"
    },
    {
      "constant": false,
      "inputs": [
        {
          "name": "_to",
          "type": "address"
        },
        {
          "name": "_value",
          "type": "uint256"
        }
      ],
      "name": "transfer",
      "outputs": [
        {
          "name": "success",
          "type": "bool"
        }
      ],
      "payable": false,
      "stateMutability": "nonpayable",
      "type": "function"
    },
    {
      "constant": true,
      "inputs": [
        {
          "name": "_owner",
          "type": "address"
        },
        {
          "name": "_spender",
          "type": "address"
        }
      ],
      "name": "allowance",
      "outputs": [
        {
          "name": "remaining",
          "type": "uint256"
        }
      ],
      "payable": false,
      "stateMutability": "view",
      "type": "function"
    },
    {
      "inputs": [],
      "payable": false,
      "stateMutability": "nonpayable",
      "type": "constructor"
    },
    {
      "payable": true,
      "stateMutability": "payable",
      "type": "fallback"
    },
    {
      "anonymous": false,
      "inputs": [
        {
          "indexed": true,
          "name": "_from",
          "type": "address"
        },
        {
          "indexed": true,
          "name": "_to",
          "type": "address"
        },
        {
          "indexed": false,
          "name": "_value",
          "type": "uint256"
        }
      ],
      "name": "Transfer",
      "type": "event"
    },
    {
      "anonymous": false,
      "inputs": [
        {
          "indexed": true,
          "name": "_owner",
          "type": "address"
        },
        {
          "indexed": true,
          "name": "_spender",
          "type": "address"
        },
        {
          "indexed": false,
          "name": "_value",
          "type": "uint256"
        }
      ],
      "name": "Approval",
      "type": "event"
    }
  ],
  "bytecode": "0x6060604052633b9aca0060005534156200001857600080fd5b33600160006101000a81548173ffffffffffffffffffffffffffffffffffffffff021916908373ffffffffffffffffffffffffffffffffffffffff160217905550620000a3600160009054906101000a900473ffffffffffffffffffffffffffffffffffffffff166000546004620000aa6401000000000262000d6617909291906401000000009004565b50620001f7565b6000808460000160008573ffffffffffffffffffffffffffffffffffffffff1673ffffffffffffffffffffffffffffffffffffffff168152602001908152602001600020905082816001018190555060008160000154111562000111576001915062000198565b8460010180546001019081620001289190620001a0565b8160000181905550838560010160018360000154038154811015156200014a57fe5b906000526020600020900160006101000a81548173ffffffffffffffffffffffffffffffffffffffff021916908373ffffffffffffffffffffffffffffffffffffffff160217905550600091505b509392505050565b815481835581811511620001ca57818360005260206000209182019101620001c99190620001cf565b5b505050565b620001f491905b80821115620001f0576000816000905550600101620001d6565b5090565b90565b610f2380620002076000396000f3006060604052600436106100c5576000357c0100000000000000000000000000000000000000000000000000000000900463ffffffff16806306fdde03146100cf578063095ea7b31461015d57806318160ddd146101b757806323b872dd146101e0578063313ce567146102595780633eb200ab14610288578063561cd462146102b157806370a08231146102fe5780637ff9b5961461034b5780638da5cb5b1461037457806395d89b41146103c9578063a9059cbb14610457578063dd62ed3e146104b1575b6100cd61051d565b005b34156100da57600080fd5b6100e2610627565b6040518080602001828103825283818151815260200191508051906020019080838360005b83811015610122578082015181840152602081019050610107565b50505050905090810190601f16801561014f5780820380516001836020036101000a031916815260200191505b509250505060405180910390f35b341561016857600080fd5b61019d600480803573ffffffffffffffffffffffffffffffffffffffff16906020019091908035906020019091905050610660565b604051808215151515815260200191505060405180910390f35b34156101c257600080fd5b6101ca610752565b6040518082815260200191505060405180910390f35b34156101eb57600080fd5b61023f600480803573ffffffffffffffffffffffffffffffffffffffff1690602001909190803573ffffffffffffffffffffffffffffffffffffffff1690602001909190803590602001909190505061075e565b604051808215151515815260200191505060405180910390f35b341561026457600080fd5b61026c610994565b604051808260ff1660ff16815260200191505060405180910390f35b341561029357600080fd5b61029b610999565b6040518082815260200191505060405180910390f35b34156102bc57600080fd5b6102e8600480803573ffffffffffffffffffffffffffffffffffffffff169060200190919050506109b4565b6040518082815260200191505060405180910390f35b341561030957600080fd5b610335600480803573ffffffffffffffffffffffffffffffffffffffff169060200190919050506109d4565b6040518082815260200191505060405180910390f35b341561035657600080fd5b61035e6109f4565b6040518082815260200191505060405180910390f35b341561037f57600080fd5b6103876109fa565b604051808273ffffffffffffffffffffffffffffffffffffffff1673ffffffffffffffffffffffffffffffffffffffff16815260200191505060405180910390f35b34156103d457600080fd5b6103dc610a20565b6040518080602001828103825283818151815260200191508051906020019080838360005b8381101561041c578082015181840152602081019050610401565b50505050905090810190601f1680156104495780820380516001836020036101000a031916815260200191505b509250505060405180910390f35b341561046257600080fd5b610497600480803573ffffffffffffffffffffffffffffffffffffffff16906020019091908035906020019091905050610a59565b604051808215151515815260200191505060405180910390f35b34156104bc57600080fd5b610507600480803573ffffffffffffffffffffffffffffffffffffffff1690602001909190803573ffffffffffffffffffffffffffffffffffffffff16906020019091905050610b88565b6040518082815260200191505060405180910390f35b600080600061054e6000543073ffffffffffffffffffffffffffffffffffffffff1631610c0f90919063ffffffff16565b600281905550600090505b6105636004610c50565b8110156106225761057e816004610c6190919063ffffffff16565b9250610594816004610cec90919063ffffffff16565b91506105c0826105af60025486610d3390919063ffffffff16565b6006610d669092919063ffffffff16565b508173ffffffffffffffffffffffffffffffffffffffff166108fc6105f060025486610d3390919063ffffffff16565b9081150290604051600060405180830381858888f19350505050151561061557600080fd5b8080600101915050610559565b505050565b6040805190810160405280600e81526020017f4469766964656e7420546f6b656e00000000000000000000000000000000000081525081565b600081600360003373ffffffffffffffffffffffffffffffffffffffff1673ffffffffffffffffffffffffffffffffffffffff16815260200190815260200160002060008573ffffffffffffffffffffffffffffffffffffffff1673ffffffffffffffffffffffffffffffffffffffff168152602001908152602001600020819055508273ffffffffffffffffffffffffffffffffffffffff163373ffffffffffffffffffffffffffffffffffffffff167f8c5be1e5ebec7d5bd14f71427d1e84f3dd0314c0f7b2291e5b200ac8c7c3b925846040518082815260200191505060405180910390a36001905092915050565b60008054905080905090565b600081610775336004610e5790919063ffffffff16565b101580156107ab5750610792836004610e5790919063ffffffff16565b826107a7856004610e5790919063ffffffff16565b0110155b8015610833575081600360008673ffffffffffffffffffffffffffffffffffffffff1673ffffffffffffffffffffffffffffffffffffffff16815260200190815260200160002060003373ffffffffffffffffffffffffffffffffffffffff1673ffffffffffffffffffffffffffffffffffffffff1681526020019081526020016000205410155b15610988576108638483610851876004610e5790919063ffffffff16565b036004610d669092919063ffffffff16565b5081600360008673ffffffffffffffffffffffffffffffffffffffff1673ffffffffffffffffffffffffffffffffffffffff16815260200190815260200160002060003373ffffffffffffffffffffffffffffffffffffffff1673ffffffffffffffffffffffffffffffffffffffff168152602001908152602001600020600082825403925050819055506109198383610907866004610e5790919063ffffffff16565b016004610d669092919063ffffffff16565b508273ffffffffffffffffffffffffffffffffffffffff168473ffffffffffffffffffffffffffffffffffffffff167fddf252ad1be2c89b69c2b068fc378daa952ba7f163c4a11628f55a4df523b3ef846040518082815260200191505060405180910390a36001905061098d565b600090505b9392505050565b600381565b3073ffffffffffffffffffffffffffffffffffffffff163181565b60006109ca826006610e5790919063ffffffff16565b9050809050919050565b60006109ea826004610e5790919063ffffffff16565b9050809050919050565b60025481565b600160009054906101000a900473ffffffffffffffffffffffffffffffffffffffff1681565b6040805190810160405280600381526020017f444554000000000000000000000000000000000000000000000000000000000081525081565b600081610a70336004610e5790919063ffffffff16565b10158015610a7e5750600082115b8015610ab25750610a99836004610e5790919063ffffffff16565b82610aae856004610e5790919063ffffffff16565b0110155b15610b7d57610ae28383610ad0866004610e5790919063ffffffff16565b016004610d669092919063ffffffff16565b50610b0e3383610afc336004610e5790919063ffffffff16565b036004610d669092919063ffffffff16565b508273ffffffffffffffffffffffffffffffffffffffff163373ffffffffffffffffffffffffffffffffffffffff167fddf252ad1be2c89b69c2b068fc378daa952ba7f163c4a11628f55a4df523b3ef846040518082815260200191505060405180910390a360019050610b82565b600090505b92915050565b6000600360008473ffffffffffffffffffffffffffffffffffffffff1673ffffffffffffffffffffffffffffffffffffffff16815260200190815260200160002060008373ffffffffffffffffffffffffffffffffffffffff1673ffffffffffffffffffffffffffffffffffffffff16815260200190815260200160002054905092915050565b600080600083111515610c1e57fe5b8284811515610c2957fe5b0490508284811515610c3757fe5b068184020184141515610c4657fe5b8091505092915050565b600081600101805490509050919050565b60008260000160008460010184815481101515610c7a57fe5b906000526020600020900160009054906101000a900473ffffffffffffffffffffffffffffffffffffffff1673ffffffffffffffffffffffffffffffffffffffff1673ffffffffffffffffffffffffffffffffffffffff16815260200190815260200160002060010154905092915050565b60008260010182815481101515610cff57fe5b906000526020600020900160009054906101000a900473ffffffffffffffffffffffffffffffffffffffff16905092915050565b60008082840290506000841480610d545750828482811515610d5157fe5b04145b1515610d5c57fe5b8091505092915050565b6000808460000160008573ffffffffffffffffffffffffffffffffffffffff1673ffffffffffffffffffffffffffffffffffffffff1681526020019081526020016000209050828160010181905550600081600001541115610dcb5760019150610e4f565b8460010180546001019081610de09190610ea6565b816000018190555083856001016001836000015403815481101515610e0157fe5b906000526020600020900160006101000a81548173ffffffffffffffffffffffffffffffffffffffff021916908373ffffffffffffffffffffffffffffffffffffffff160217905550600091505b509392505050565b60008260000160008373ffffffffffffffffffffffffffffffffffffffff1673ffffffffffffffffffffffffffffffffffffffff16815260200190815260200160002060010154905092915050565b815481835581811511610ecd57818360005260206000209182019101610ecc9190610ed2565b5b505050565b610ef491905b80821115610ef0576000816000905550600101610ed8565b5090565b905600a165627a7a723058204d05bdfe3b89909a052fe80ced15b58412d6c2861c71aeb3e1f1592c320df6720029",
  "source": "pragma solidity ^0.4.18;\r\n\r\nimport \"./ERC20Interface.sol\";\r\nimport \"./lib/itMaps.sol\";\r\nimport \"./lib/SafeMath.sol\";\r\n\r\n\r\ncontract Tokenv1 is ERC20Interface {\r\n\r\n    using itMaps for itMaps.itMapAddressUint;\r\n    using SafeMath for uint256;\r\n\r\n    string public constant name = \"Divident Token\";\r\n    string public constant symbol = \"DET\";\r\n    uint8 public constant decimals = 3;\r\n\r\n    uint256 _totalSupply = 1000000000;\r\n\r\n    address public owner;\r\n\r\n    uint256 public tokenPrice;\r\n\r\n    uint256 public constant amountOfEthereum = this.balance; \r\n\r\n    mapping (address => mapping (address => uint256)) allowed;\r\n\r\n    itMaps.itMapAddressUint tokensBalances;\r\n    itMaps.itMapAddressUint ethereumBalances;\r\n\r\n    function Tokenv1() public {\r\n        owner = msg.sender;\r\n        tokensBalances.insert(owner,_totalSupply);\r\n    }\r\n\r\n\r\n    function totalSupply() public constant returns (uint256 totalSupply) {\r\n        totalSupply = _totalSupply;\r\n        return totalSupply;\r\n    }\r\n\r\n    function balanceOf(address _owner) public constant returns (uint256 balance) {\r\n        balance = tokensBalances.get(_owner);\r\n        return balance;\r\n    }\r\n\r\n    function transfer(address _to, uint256 _value) returns (bool success) {\r\n        if(tokensBalances.get(msg.sender) >= _value && _value > 0 && tokensBalances.get(_to) + _value >= tokensBalances.get(_to)) { \r\n            tokensBalances.insert(_to, tokensBalances.get(_to) + _value);\r\n            tokensBalances.insert(msg.sender,(tokensBalances.get(msg.sender) - _value));\r\n            Transfer(msg.sender, _to, _value);\r\n            return true;\r\n        }\r\n        else {\r\n            return false;\r\n        }\r\n    }\r\n\r\n    function transferFrom(address _from, address _to, uint256 _value) returns (bool success) {\r\n        if(tokensBalances.get(msg.sender) >= _value &&\r\n            tokensBalances.get(_to) + _value >= tokensBalances.get(_to) && \r\n            allowed[_from][msg.sender] >= _value) { \r\n                tokensBalances.insert(_from, tokensBalances.get(_from)-_value);\r\n                allowed[_from][msg.sender]-=_value;\r\n                tokensBalances.insert(_to, tokensBalances.get(_to)+_value);\r\n                Transfer(_from,_to,_value);\r\n                return true;\r\n        }\r\n        else {\r\n            return false;\r\n        }\r\n    }\r\n\r\n    function approve(address _spender, uint256 _value) returns (bool success) {\r\n        allowed[msg.sender][_spender] = _value;\r\n        Approval(msg.sender, _spender, _value);\r\n        return true;\r\n    }\r\n\r\n    function allowance(address _owner, address _spender) constant returns (uint256 remaining) {\r\n        return allowed[_owner][_spender];\r\n    }\r\n\r\n\r\n    function() payable {\r\n        getDividents();\r\n    }\r\n\r\n    function getDividents() private {\r\n        uint256 value;\r\n        address key;\r\n        \r\n        tokenPrice = amountOfEthereum.div(_totalSupply);\r\n\r\n        for(uint i = 0; i < tokensBalances.size(); i++){\r\n            value = tokensBalances.getValueByIndex(i);\r\n            key = tokensBalances.getKeyByIndex(i);\r\n\r\n            ethereumBalances.insert(key, value.mul(tokenPrice));\r\n\r\n            key.transfer(value.mul(tokenPrice));\r\n        }\r\n    }\r\n\r\n    function balanceOfETH(address _owner) public constant returns (uint256 balance) {\r\n        balance = ethereumBalances.get(_owner);\r\n        return balance;\r\n    }\r\n\r\n    event Transfer(address indexed _from, address indexed _to, uint256 _value);\r\n    event Approval(address indexed _owner, address indexed _spender, uint256 _value);\r\n\r\n}",
  "sourcePath": "C:\\Users\\Дима\\DividentsToken\\contracts\\DividentsToken.sol",
  "compiler": {
    "name": "solc",
    "version": "0.4.18+commit.9cf6e910.Emscripten.clang"
  },
  "schemaVersion": "1.0.1",
  "updatedAt": "2017-12-25T12:56:44.598Z"
}